{
  "_format": "hh-sol-artifact-1",
  "contractName": "FxERC721",
  "sourceName": "contracts/tokens/FxERC721.sol",
  "abi": [
    {
      "anonymous": false,
      "inputs": [
        {
          "indexed": true,
          "internalType": "address",
          "name": "owner",
          "type": "address"
        },
        {
          "indexed": true,
          "internalType": "address",
          "name": "approved",
          "type": "address"
        },
        {
          "indexed": true,
          "internalType": "uint256",
          "name": "tokenId",
          "type": "uint256"
        }
      ],
      "name": "Approval",
      "type": "event"
    },
    {
      "anonymous": false,
      "inputs": [
        {
          "indexed": true,
          "internalType": "address",
          "name": "owner",
          "type": "address"
        },
        {
          "indexed": true,
          "internalType": "address",
          "name": "operator",
          "type": "address"
        },
        {
          "indexed": false,
          "internalType": "bool",
          "name": "approved",
          "type": "bool"
        }
      ],
      "name": "ApprovalForAll",
      "type": "event"
    },
    {
      "anonymous": false,
      "inputs": [
        {
          "indexed": true,
          "internalType": "address",
          "name": "from",
          "type": "address"
        },
        {
          "indexed": true,
          "internalType": "address",
          "name": "to",
          "type": "address"
        },
        {
          "indexed": true,
          "internalType": "uint256",
          "name": "tokenId",
          "type": "uint256"
        }
      ],
      "name": "Transfer",
      "type": "event"
    },
    {
      "inputs": [
        {
          "internalType": "address",
          "name": "to",
          "type": "address"
        },
        {
          "internalType": "uint256",
          "name": "tokenId",
          "type": "uint256"
        }
      ],
      "name": "approve",
      "outputs": [],
      "stateMutability": "nonpayable",
      "type": "function"
    },
    {
      "inputs": [
        {
          "internalType": "address",
          "name": "owner",
          "type": "address"
        }
      ],
      "name": "balanceOf",
      "outputs": [
        {
          "internalType": "uint256",
          "name": "",
          "type": "uint256"
        }
      ],
      "stateMutability": "view",
      "type": "function"
    },
    {
      "inputs": [
        {
          "internalType": "uint256",
          "name": "tokenId",
          "type": "uint256"
        }
      ],
      "name": "burn",
      "outputs": [],
      "stateMutability": "nonpayable",
      "type": "function"
    },
    {
      "inputs": [],
      "name": "connectedToken",
      "outputs": [
        {
          "internalType": "address",
          "name": "",
          "type": "address"
        }
      ],
      "stateMutability": "view",
      "type": "function"
    },
    {
      "inputs": [],
      "name": "fxManager",
      "outputs": [
        {
          "internalType": "address",
          "name": "",
          "type": "address"
        }
      ],
      "stateMutability": "view",
      "type": "function"
    },
    {
      "inputs": [
        {
          "internalType": "uint256",
          "name": "tokenId",
          "type": "uint256"
        }
      ],
      "name": "getApproved",
      "outputs": [
        {
          "internalType": "address",
          "name": "",
          "type": "address"
        }
      ],
      "stateMutability": "view",
      "type": "function"
    },
    {
      "inputs": [
        {
          "internalType": "address",
          "name": "fxManager_",
          "type": "address"
        },
        {
          "internalType": "address",
          "name": "connectedToken_",
          "type": "address"
        },
        {
          "internalType": "string",
          "name": "name_",
          "type": "string"
        },
        {
          "internalType": "string",
          "name": "symbol_",
          "type": "string"
        }
      ],
      "name": "initialize",
      "outputs": [],
      "stateMutability": "nonpayable",
      "type": "function"
    },
    {
      "inputs": [
        {
          "internalType": "address",
          "name": "owner",
          "type": "address"
        },
        {
          "internalType": "address",
          "name": "operator",
          "type": "address"
        }
      ],
      "name": "isApprovedForAll",
      "outputs": [
        {
          "internalType": "bool",
          "name": "",
          "type": "bool"
        }
      ],
      "stateMutability": "view",
      "type": "function"
    },
    {
      "inputs": [
        {
          "internalType": "address",
          "name": "user",
          "type": "address"
        },
        {
          "internalType": "uint256",
          "name": "tokenId",
          "type": "uint256"
        },
        {
          "internalType": "bytes",
          "name": "_data",
          "type": "bytes"
        }
      ],
      "name": "mint",
      "outputs": [],
      "stateMutability": "nonpayable",
      "type": "function"
    },
    {
      "inputs": [],
      "name": "name",
      "outputs": [
        {
          "internalType": "string",
          "name": "",
          "type": "string"
        }
      ],
      "stateMutability": "view",
      "type": "function"
    },
    {
      "inputs": [
        {
          "internalType": "uint256",
          "name": "tokenId",
          "type": "uint256"
        }
      ],
      "name": "ownerOf",
      "outputs": [
        {
          "internalType": "address",
          "name": "",
          "type": "address"
        }
      ],
      "stateMutability": "view",
      "type": "function"
    },
    {
      "inputs": [
        {
          "internalType": "address",
          "name": "from",
          "type": "address"
        },
        {
          "internalType": "address",
          "name": "to",
          "type": "address"
        },
        {
          "internalType": "uint256",
          "name": "tokenId",
          "type": "uint256"
        }
      ],
      "name": "safeTransferFrom",
      "outputs": [],
      "stateMutability": "nonpayable",
      "type": "function"
    },
    {
      "inputs": [
        {
          "internalType": "address",
          "name": "from",
          "type": "address"
        },
        {
          "internalType": "address",
          "name": "to",
          "type": "address"
        },
        {
          "internalType": "uint256",
          "name": "tokenId",
          "type": "uint256"
        },
        {
          "internalType": "bytes",
          "name": "_data",
          "type": "bytes"
        }
      ],
      "name": "safeTransferFrom",
      "outputs": [],
      "stateMutability": "nonpayable",
      "type": "function"
    },
    {
      "inputs": [
        {
          "internalType": "address",
          "name": "operator",
          "type": "address"
        },
        {
          "internalType": "bool",
          "name": "approved",
          "type": "bool"
        }
      ],
      "name": "setApprovalForAll",
      "outputs": [],
      "stateMutability": "nonpayable",
      "type": "function"
    },
    {
      "inputs": [
        {
          "internalType": "string",
          "name": "_name",
          "type": "string"
        },
        {
          "internalType": "string",
          "name": "_symbol",
          "type": "string"
        }
      ],
      "name": "setupMetaData",
      "outputs": [],
      "stateMutability": "nonpayable",
      "type": "function"
    },
    {
      "inputs": [
        {
          "internalType": "bytes4",
          "name": "interfaceId",
          "type": "bytes4"
        }
      ],
      "name": "supportsInterface",
      "outputs": [
        {
          "internalType": "bool",
          "name": "",
          "type": "bool"
        }
      ],
      "stateMutability": "view",
      "type": "function"
    },
    {
      "inputs": [],
      "name": "symbol",
      "outputs": [
        {
          "internalType": "string",
          "name": "",
          "type": "string"
        }
      ],
      "stateMutability": "view",
      "type": "function"
    },
    {
      "inputs": [
        {
          "internalType": "uint256",
          "name": "tokenId",
          "type": "uint256"
        }
      ],
      "name": "tokenURI",
      "outputs": [
        {
          "internalType": "string",
          "name": "",
          "type": "string"
        }
      ],
      "stateMutability": "view",
      "type": "function"
    },
    {
      "inputs": [
        {
          "internalType": "address",
          "name": "from",
          "type": "address"
        },
        {
          "internalType": "address",
          "name": "to",
          "type": "address"
        },
        {
          "internalType": "uint256",
          "name": "tokenId",
          "type": "uint256"
        }
      ],
      "name": "transferFrom",
      "outputs": [],
      "stateMutability": "nonpayable",
      "type": "function"
    }
  ],
  "bytecode": "0x608060405234801561001057600080fd5b50613240806100206000396000f3fe608060405234801561001057600080fd5b50600436106101215760003560e01c806342966c68116100ad5780639b779153116100715780639b77915314610304578063a22cb46514610322578063b88d4fde1461033e578063c87b56dd1461035a578063e985e9c51461038a57610121565b806342966c681461024e5780636352211e1461026a57806370a082311461029a57806394d008ef146102ca57806395d89b41146102e657610121565b80630a8a4914116100f45780630a8a4914146101c05780632016a0d2146101de57806323b872dd146101fa5780633d30498f1461021657806342842e0e1461023257610121565b806301ffc9a71461012657806306fdde0314610156578063081812fc14610174578063095ea7b3146101a4575b600080fd5b610140600480360381019061013b9190611c73565b6103ba565b60405161014d9190611cbb565b60405180910390f35b61015e61049c565b60405161016b9190611d66565b60405180910390f35b61018e60048036038101906101899190611dbe565b61052e565b60405161019b9190611e2c565b60405180910390f35b6101be60048036038101906101b99190611e73565b6105b3565b005b6101c8610725565b6040516101d59190611e2c565b60405180910390f35b6101f860048036038101906101f39190611fe8565b61074f565b005b610214600480360381019061020f9190612087565b6108cc565b005b610230600480360381019061022b91906120da565b61092c565b005b61024c60048036038101906102479190612087565b6109ca565b005b61026860048036038101906102639190611dbe565b6109ea565b005b610284600480360381019061027f9190611dbe565b610a86565b6040516102919190611e2c565b60405180910390f35b6102b460048036038101906102af9190612152565b610b37565b6040516102c1919061218e565b60405180910390f35b6102e460048036038101906102df919061224a565b610bee565b005b6102ee610c8e565b6040516102fb9190611d66565b60405180910390f35b61030c610d20565b6040516103199190611e2c565b60405180910390f35b61033c600480360381019061033791906122e5565b610d4a565b005b61035860048036038101906103539190612325565b610eca565b005b610374600480360381019061036f9190611dbe565b610f2c565b6040516103819190611d66565b60405180910390f35b6103a4600480360381019061039f91906123a8565b610fd3565b6040516103b19190611cbb565b60405180910390f35b60007f80ac58cd000000000000000000000000000000000000000000000000000000007bffffffffffffffffffffffffffffffffffffffffffffffffffffffff1916827bffffffffffffffffffffffffffffffffffffffffffffffffffffffff1916148061048557507f5b5e139f000000000000000000000000000000000000000000000000000000007bffffffffffffffffffffffffffffffffffffffffffffffffffffffff1916827bffffffffffffffffffffffffffffffffffffffffffffffffffffffff1916145b80610495575061049482611067565b5b9050919050565b6060600080546104ab90612417565b80601f01602080910402602001604051908101604052809291908181526020018280546104d790612417565b80156105245780601f106104f957610100808354040283529160200191610524565b820191906000526020600020905b81548152906001019060200180831161050757829003601f168201915b5050505050905090565b6000610539826110d1565b610578576040517f08c379a000000000000000000000000000000000000000000000000000000000815260040161056f906124ba565b60405180910390fd5b6004600083815260200190815260200160002060009054906101000a900473ffffffffffffffffffffffffffffffffffffffff169050919050565b60006105be82610a86565b90508073ffffffffffffffffffffffffffffffffffffffff168373ffffffffffffffffffffffffffffffffffffffff160361062e576040517f08c379a00000000000000000000000000000000000000000000000000000000081526004016106259061254c565b60405180910390fd5b8073ffffffffffffffffffffffffffffffffffffffff1661064d61113d565b73ffffffffffffffffffffffffffffffffffffffff16148061067c575061067b8161067661113d565b610fd3565b5b6106bb576040517f08c379a00000000000000000000000000000000000000000000000000000000081526004016106b2906125de565b60405180910390fd5b6106c58383611145565b818373ffffffffffffffffffffffffffffffffffffffff168273ffffffffffffffffffffffffffffffffffffffff167f8c5be1e5ebec7d5bd14f71427d1e84f3dd0314c0f7b2291e5b200ac8c7c3b92560405160405180910390a4505050565b6000600760009054906101000a900473ffffffffffffffffffffffffffffffffffffffff16905090565b600073ffffffffffffffffffffffffffffffffffffffff16600660009054906101000a900473ffffffffffffffffffffffffffffffffffffffff1673ffffffffffffffffffffffffffffffffffffffff161480156107fb5750600073ffffffffffffffffffffffffffffffffffffffff16600760009054906101000a900473ffffffffffffffffffffffffffffffffffffffff1673ffffffffffffffffffffffffffffffffffffffff16145b61083a576040517f08c379a00000000000000000000000000000000000000000000000000000000081526004016108319061264a565b60405180910390fd5b83600660006101000a81548173ffffffffffffffffffffffffffffffffffffffff021916908373ffffffffffffffffffffffffffffffffffffffff16021790555082600760006101000a81548173ffffffffffffffffffffffffffffffffffffffff021916908373ffffffffffffffffffffffffffffffffffffffff1602179055506108c6828261092c565b50505050565b6108dd6108d761113d565b8261119b565b61091c576040517f08c379a0000000000000000000000000000000000000000000000000000000008152600401610913906126dc565b60405180910390fd5b610927838383611279565b505050565b600660009054906101000a900473ffffffffffffffffffffffffffffffffffffffff1673ffffffffffffffffffffffffffffffffffffffff163373ffffffffffffffffffffffffffffffffffffffff16146109bc576040517f08c379a00000000000000000000000000000000000000000000000000000000081526004016109b390612748565b60405180910390fd5b6109c68282611538565b5050565b6109e583838360405180602001604052806000815250610eca565b505050565b600660009054906101000a900473ffffffffffffffffffffffffffffffffffffffff1673ffffffffffffffffffffffffffffffffffffffff163373ffffffffffffffffffffffffffffffffffffffff1614610a7a576040517f08c379a0000000000000000000000000000000000000000000000000000000008152600401610a7190612748565b60405180910390fd5b610a838161155c565b50565b6000806002600084815260200190815260200160002060009054906101000a900473ffffffffffffffffffffffffffffffffffffffff169050600073ffffffffffffffffffffffffffffffffffffffff168173ffffffffffffffffffffffffffffffffffffffff1603610b2e576040517f08c379a0000000000000000000000000000000000000000000000000000000008152600401610b25906127da565b60405180910390fd5b80915050919050565b60008073ffffffffffffffffffffffffffffffffffffffff168273ffffffffffffffffffffffffffffffffffffffff1603610ba7576040517f08c379a0000000000000000000000000000000000000000000000000000000008152600401610b9e9061286c565b60405180910390fd5b600360008373ffffffffffffffffffffffffffffffffffffffff1673ffffffffffffffffffffffffffffffffffffffff168152602001908152602001600020549050919050565b600660009054906101000a900473ffffffffffffffffffffffffffffffffffffffff1673ffffffffffffffffffffffffffffffffffffffff163373ffffffffffffffffffffffffffffffffffffffff1614610c7e576040517f08c379a0000000000000000000000000000000000000000000000000000000008152600401610c7590612748565b60405180910390fd5b610c8983838361166d565b505050565b606060018054610c9d90612417565b80601f0160208091040260200160405190810160405280929190818152602001828054610cc990612417565b8015610d165780601f10610ceb57610100808354040283529160200191610d16565b820191906000526020600020905b815481529060010190602001808311610cf957829003601f168201915b5050505050905090565b6000600660009054906101000a900473ffffffffffffffffffffffffffffffffffffffff16905090565b610d5261113d565b73ffffffffffffffffffffffffffffffffffffffff168273ffffffffffffffffffffffffffffffffffffffff1603610dbf576040517f08c379a0000000000000000000000000000000000000000000000000000000008152600401610db6906128d8565b60405180910390fd5b8060056000610dcc61113d565b73ffffffffffffffffffffffffffffffffffffffff1673ffffffffffffffffffffffffffffffffffffffff16815260200190815260200160002060008473ffffffffffffffffffffffffffffffffffffffff1673ffffffffffffffffffffffffffffffffffffffff16815260200190815260200160002060006101000a81548160ff0219169083151502179055508173ffffffffffffffffffffffffffffffffffffffff16610e7961113d565b73ffffffffffffffffffffffffffffffffffffffff167f17307eab39ab6107e8899845ad3d59bd9653f200f220920489ca2b5937696c3183604051610ebe9190611cbb565b60405180910390a35050565b610edb610ed561113d565b8361119b565b610f1a576040517f08c379a0000000000000000000000000000000000000000000000000000000008152600401610f11906126dc565b60405180910390fd5b610f26848484846116c8565b50505050565b6060610f37826110d1565b610f76576040517f08c379a0000000000000000000000000000000000000000000000000000000008152600401610f6d9061296a565b60405180910390fd5b6000610f80611724565b90506000815111610fa05760405180602001604052806000815250610fcb565b80610faa8461173b565b604051602001610fbb9291906129c6565b6040516020818303038152906040525b915050919050565b6000600560008473ffffffffffffffffffffffffffffffffffffffff1673ffffffffffffffffffffffffffffffffffffffff16815260200190815260200160002060008373ffffffffffffffffffffffffffffffffffffffff1673ffffffffffffffffffffffffffffffffffffffff16815260200190815260200160002060009054906101000a900460ff16905092915050565b60007f01ffc9a7000000000000000000000000000000000000000000000000000000007bffffffffffffffffffffffffffffffffffffffffffffffffffffffff1916827bffffffffffffffffffffffffffffffffffffffffffffffffffffffff1916149050919050565b60008073ffffffffffffffffffffffffffffffffffffffff166002600084815260200190815260200160002060009054906101000a900473ffffffffffffffffffffffffffffffffffffffff1673ffffffffffffffffffffffffffffffffffffffff1614159050919050565b600033905090565b816004600083815260200190815260200160002060006101000a81548173ffffffffffffffffffffffffffffffffffffffff021916908373ffffffffffffffffffffffffffffffffffffffff1602179055505050565b60006111a6826110d1565b6111e5576040517f08c379a00000000000000000000000000000000000000000000000000000000081526004016111dc90612a5c565b60405180910390fd5b60006111f083610a86565b90508073ffffffffffffffffffffffffffffffffffffffff168473ffffffffffffffffffffffffffffffffffffffff16148061125f57508373ffffffffffffffffffffffffffffffffffffffff166112478461052e565b73ffffffffffffffffffffffffffffffffffffffff16145b80611270575061126f8185610fd3565b5b91505092915050565b8273ffffffffffffffffffffffffffffffffffffffff1661129982610a86565b73ffffffffffffffffffffffffffffffffffffffff16146112ef576040517f08c379a00000000000000000000000000000000000000000000000000000000081526004016112e690612aee565b60405180910390fd5b600073ffffffffffffffffffffffffffffffffffffffff168273ffffffffffffffffffffffffffffffffffffffff160361135e576040517f08c379a000000000000000000000000000000000000000000000000000000000815260040161135590612b80565b60405180910390fd5b61136983838361189b565b611374600082611145565b80600073ffffffffffffffffffffffffffffffffffffffff1661139683610a86565b73ffffffffffffffffffffffffffffffffffffffff167f8c5be1e5ebec7d5bd14f71427d1e84f3dd0314c0f7b2291e5b200ac8c7c3b92560405160405180910390a46001600360008573ffffffffffffffffffffffffffffffffffffffff1673ffffffffffffffffffffffffffffffffffffffff16815260200190815260200160002060008282546114289190612bcf565b925050819055506001600360008473ffffffffffffffffffffffffffffffffffffffff1673ffffffffffffffffffffffffffffffffffffffff168152602001908152602001600020600082825461147f9190612c03565b92505081905550816002600083815260200190815260200160002060006101000a81548173ffffffffffffffffffffffffffffffffffffffff021916908373ffffffffffffffffffffffffffffffffffffffff160217905550808273ffffffffffffffffffffffffffffffffffffffff168473ffffffffffffffffffffffffffffffffffffffff167fddf252ad1be2c89b69c2b068fc378daa952ba7f163c4a11628f55a4df523b3ef60405160405180910390a4505050565b81600090816115479190612de3565b5080600190816115579190612de3565b505050565b600061156782610a86565b90506115758160008461189b565b611580600083611145565b6001600360008373ffffffffffffffffffffffffffffffffffffffff1673ffffffffffffffffffffffffffffffffffffffff16815260200190815260200160002060008282546115d09190612bcf565b925050819055506002600083815260200190815260200160002060006101000a81549073ffffffffffffffffffffffffffffffffffffffff021916905581600073ffffffffffffffffffffffffffffffffffffffff168273ffffffffffffffffffffffffffffffffffffffff167fddf252ad1be2c89b69c2b068fc378daa952ba7f163c4a11628f55a4df523b3ef60405160405180910390a45050565b61167783836118a0565b6116846000848484611a6d565b6116c3576040517f08c379a00000000000000000000000000000000000000000000000000000000081526004016116ba90612f27565b60405180910390fd5b505050565b6116d3848484611279565b6116df84848484611a6d565b61171e576040517f08c379a000000000000000000000000000000000000000000000000000000000815260040161171590612f27565b60405180910390fd5b50505050565b606060405180602001604052806000815250905090565b606060008203611782576040518060400160405280600181526020017f30000000000000000000000000000000000000000000000000000000000000008152509050611896565b600082905060005b600082146117b457808061179d90612f47565b915050600a826117ad9190612fbe565b915061178a565b60008167ffffffffffffffff8111156117d0576117cf611ebd565b5b6040519080825280601f01601f1916602001820160405280156118025781602001600182028036833780820191505090505b5090505b6000851461188f5760018261181b9190612bcf565b9150600a8561182a9190612fef565b60306118369190612c03565b60f81b81838151811061184c5761184b613020565b5b60200101907effffffffffffffffffffffffffffffffffffffffffffffffffffffffffffff1916908160001a905350600a856118889190612fbe565b9450611806565b8093505050505b919050565b505050565b600073ffffffffffffffffffffffffffffffffffffffff168273ffffffffffffffffffffffffffffffffffffffff160361190f576040517f08c379a00000000000000000000000000000000000000000000000000000000081526004016119069061309b565b60405180910390fd5b611918816110d1565b15611958576040517f08c379a000000000000000000000000000000000000000000000000000000000815260040161194f90613107565b60405180910390fd5b6119646000838361189b565b6001600360008473ffffffffffffffffffffffffffffffffffffffff1673ffffffffffffffffffffffffffffffffffffffff16815260200190815260200160002060008282546119b49190612c03565b92505081905550816002600083815260200190815260200160002060006101000a81548173ffffffffffffffffffffffffffffffffffffffff021916908373ffffffffffffffffffffffffffffffffffffffff160217905550808273ffffffffffffffffffffffffffffffffffffffff16600073ffffffffffffffffffffffffffffffffffffffff167fddf252ad1be2c89b69c2b068fc378daa952ba7f163c4a11628f55a4df523b3ef60405160405180910390a45050565b6000611a8e8473ffffffffffffffffffffffffffffffffffffffff16611bf4565b15611be7578373ffffffffffffffffffffffffffffffffffffffff1663150b7a02611ab761113d565b8786866040518563ffffffff1660e01b8152600401611ad9949392919061317c565b6020604051808303816000875af1925050508015611b1557506040513d601f19601f82011682018060405250810190611b1291906131dd565b60015b611b97573d8060008114611b45576040519150601f19603f3d011682016040523d82523d6000602084013e611b4a565b606091505b506000815103611b8f576040517f08c379a0000000000000000000000000000000000000000000000000000000008152600401611b8690612f27565b60405180910390fd5b805181602001fd5b63150b7a0260e01b7bffffffffffffffffffffffffffffffffffffffffffffffffffffffff1916817bffffffffffffffffffffffffffffffffffffffffffffffffffffffff191614915050611bec565b600190505b949350505050565b600080823b905060008111915050919050565b6000604051905090565b600080fd5b600080fd5b60007fffffffff0000000000000000000000000000000000000000000000000000000082169050919050565b611c5081611c1b565b8114611c5b57600080fd5b50565b600081359050611c6d81611c47565b92915050565b600060208284031215611c8957611c88611c11565b5b6000611c9784828501611c5e565b91505092915050565b60008115159050919050565b611cb581611ca0565b82525050565b6000602082019050611cd06000830184611cac565b92915050565b600081519050919050565b600082825260208201905092915050565b60005b83811015611d10578082015181840152602081019050611cf5565b60008484015250505050565b6000601f19601f8301169050919050565b6000611d3882611cd6565b611d428185611ce1565b9350611d52818560208601611cf2565b611d5b81611d1c565b840191505092915050565b60006020820190508181036000830152611d808184611d2d565b905092915050565b6000819050919050565b611d9b81611d88565b8114611da657600080fd5b50565b600081359050611db881611d92565b92915050565b600060208284031215611dd457611dd3611c11565b5b6000611de284828501611da9565b91505092915050565b600073ffffffffffffffffffffffffffffffffffffffff82169050919050565b6000611e1682611deb565b9050919050565b611e2681611e0b565b82525050565b6000602082019050611e416000830184611e1d565b92915050565b611e5081611e0b565b8114611e5b57600080fd5b50565b600081359050611e6d81611e47565b92915050565b60008060408385031215611e8a57611e89611c11565b5b6000611e9885828601611e5e565b9250506020611ea985828601611da9565b9150509250929050565b600080fd5b600080fd5b7f4e487b7100000000000000000000000000000000000000000000000000000000600052604160045260246000fd5b611ef582611d1c565b810181811067ffffffffffffffff82111715611f1457611f13611ebd565b5b80604052505050565b6000611f27611c07565b9050611f338282611eec565b919050565b600067ffffffffffffffff821115611f5357611f52611ebd565b5b611f5c82611d1c565b9050602081019050919050565b82818337600083830152505050565b6000611f8b611f8684611f38565b611f1d565b905082815260208101848484011115611fa757611fa6611eb8565b5b611fb2848285611f69565b509392505050565b600082601f830112611fcf57611fce611eb3565b5b8135611fdf848260208601611f78565b91505092915050565b6000806000806080858703121561200257612001611c11565b5b600061201087828801611e5e565b945050602061202187828801611e5e565b935050604085013567ffffffffffffffff81111561204257612041611c16565b5b61204e87828801611fba565b925050606085013567ffffffffffffffff81111561206f5761206e611c16565b5b61207b87828801611fba565b91505092959194509250565b6000806000606084860312156120a05761209f611c11565b5b60006120ae86828701611e5e565b93505060206120bf86828701611e5e565b92505060406120d086828701611da9565b9150509250925092565b600080604083850312156120f1576120f0611c11565b5b600083013567ffffffffffffffff81111561210f5761210e611c16565b5b61211b85828601611fba565b925050602083013567ffffffffffffffff81111561213c5761213b611c16565b5b61214885828601611fba565b9150509250929050565b60006020828403121561216857612167611c11565b5b600061217684828501611e5e565b91505092915050565b61218881611d88565b82525050565b60006020820190506121a3600083018461217f565b92915050565b600067ffffffffffffffff8211156121c4576121c3611ebd565b5b6121cd82611d1c565b9050602081019050919050565b60006121ed6121e8846121a9565b611f1d565b90508281526020810184848401111561220957612208611eb8565b5b612214848285611f69565b509392505050565b600082601f83011261223157612230611eb3565b5b81356122418482602086016121da565b91505092915050565b60008060006060848603121561226357612262611c11565b5b600061227186828701611e5e565b935050602061228286828701611da9565b925050604084013567ffffffffffffffff8111156122a3576122a2611c16565b5b6122af8682870161221c565b9150509250925092565b6122c281611ca0565b81146122cd57600080fd5b50565b6000813590506122df816122b9565b92915050565b600080604083850312156122fc576122fb611c11565b5b600061230a85828601611e5e565b925050602061231b858286016122d0565b9150509250929050565b6000806000806080858703121561233f5761233e611c11565b5b600061234d87828801611e5e565b945050602061235e87828801611e5e565b935050604061236f87828801611da9565b925050606085013567ffffffffffffffff8111156123905761238f611c16565b5b61239c8782880161221c565b91505092959194509250565b600080604083850312156123bf576123be611c11565b5b60006123cd85828601611e5e565b92505060206123de85828601611e5e565b9150509250929050565b7f4e487b7100000000000000000000000000000000000000000000000000000000600052602260045260246000fd5b6000600282049050600182168061242f57607f821691505b602082108103612442576124416123e8565b5b50919050565b7f4552433732313a20617070726f76656420717565727920666f72206e6f6e657860008201527f697374656e7420746f6b656e0000000000000000000000000000000000000000602082015250565b60006124a4602c83611ce1565b91506124af82612448565b604082019050919050565b600060208201905081810360008301526124d381612497565b9050919050565b7f4552433732313a20617070726f76616c20746f2063757272656e74206f776e6560008201527f7200000000000000000000000000000000000000000000000000000000000000602082015250565b6000612536602183611ce1565b9150612541826124da565b604082019050919050565b6000602082019050818103600083015261256581612529565b9050919050565b7f4552433732313a20617070726f76652063616c6c6572206973206e6f74206f7760008201527f6e6572206e6f7220617070726f76656420666f7220616c6c0000000000000000602082015250565b60006125c8603883611ce1565b91506125d38261256c565b604082019050919050565b600060208201905081810360008301526125f7816125bb565b9050919050565b7f546f6b656e20697320616c726561647920696e697469616c697a656400000000600082015250565b6000612634601c83611ce1565b915061263f826125fe565b602082019050919050565b6000602082019050818103600083015261266381612627565b9050919050565b7f4552433732313a207472616e736665722063616c6c6572206973206e6f74206f60008201527f776e6572206e6f7220617070726f766564000000000000000000000000000000602082015250565b60006126c6603183611ce1565b91506126d18261266a565b604082019050919050565b600060208201905081810360008301526126f5816126b9565b9050919050565b7f496e76616c69642073656e646572000000000000000000000000000000000000600082015250565b6000612732600e83611ce1565b915061273d826126fc565b602082019050919050565b6000602082019050818103600083015261276181612725565b9050919050565b7f4552433732313a206f776e657220717565727920666f72206e6f6e657869737460008201527f656e7420746f6b656e0000000000000000000000000000000000000000000000602082015250565b60006127c4602983611ce1565b91506127cf82612768565b604082019050919050565b600060208201905081810360008301526127f3816127b7565b9050919050565b7f4552433732313a2062616c616e636520717565727920666f7220746865207a6560008201527f726f206164647265737300000000000000000000000000000000000000000000602082015250565b6000612856602a83611ce1565b9150612861826127fa565b604082019050919050565b6000602082019050818103600083015261288581612849565b9050919050565b7f4552433732313a20617070726f766520746f2063616c6c657200000000000000600082015250565b60006128c2601983611ce1565b91506128cd8261288c565b602082019050919050565b600060208201905081810360008301526128f1816128b5565b9050919050565b7f4552433732314d657461646174613a2055524920717565727920666f72206e6f60008201527f6e6578697374656e7420746f6b656e0000000000000000000000000000000000602082015250565b6000612954602f83611ce1565b915061295f826128f8565b604082019050919050565b6000602082019050818103600083015261298381612947565b9050919050565b600081905092915050565b60006129a082611cd6565b6129aa818561298a565b93506129ba818560208601611cf2565b80840191505092915050565b60006129d28285612995565b91506129de8284612995565b91508190509392505050565b7f4552433732313a206f70657261746f7220717565727920666f72206e6f6e657860008201527f697374656e7420746f6b656e0000000000000000000000000000000000000000602082015250565b6000612a46602c83611ce1565b9150612a51826129ea565b604082019050919050565b60006020820190508181036000830152612a7581612a39565b9050919050565b7f4552433732313a207472616e73666572206f6620746f6b656e2074686174206960008201527f73206e6f74206f776e0000000000000000000000000000000000000000000000602082015250565b6000612ad8602983611ce1565b9150612ae382612a7c565b604082019050919050565b60006020820190508181036000830152612b0781612acb565b9050919050565b7f4552433732313a207472616e7366657220746f20746865207a65726f2061646460008201527f7265737300000000000000000000000000000000000000000000000000000000602082015250565b6000612b6a602483611ce1565b9150612b7582612b0e565b604082019050919050565b60006020820190508181036000830152612b9981612b5d565b9050919050565b7f4e487b7100000000000000000000000000000000000000000000000000000000600052601160045260246000fd5b6000612bda82611d88565b9150612be583611d88565b9250828203905081811115612bfd57612bfc612ba0565b5b92915050565b6000612c0e82611d88565b9150612c1983611d88565b9250828201905080821115612c3157612c30612ba0565b5b92915050565b60008190508160005260206000209050919050565b60006020601f8301049050919050565b600082821b905092915050565b600060088302612c997fffffffffffffffffffffffffffffffffffffffffffffffffffffffffffffffff82612c5c565b612ca38683612c5c565b95508019841693508086168417925050509392505050565b6000819050919050565b6000612ce0612cdb612cd684611d88565b612cbb565b611d88565b9050919050565b6000819050919050565b612cfa83612cc5565b612d0e612d0682612ce7565b848454612c69565b825550505050565b600090565b612d23612d16565b612d2e818484612cf1565b505050565b5b81811015612d5257612d47600082612d1b565b600181019050612d34565b5050565b601f821115612d9757612d6881612c37565b612d7184612c4c565b81016020851015612d80578190505b612d94612d8c85612c4c565b830182612d33565b50505b505050565b600082821c905092915050565b6000612dba60001984600802612d9c565b1980831691505092915050565b6000612dd38383612da9565b9150826002028217905092915050565b612dec82611cd6565b67ffffffffffffffff811115612e0557612e04611ebd565b5b612e0f8254612417565b612e1a828285612d56565b600060209050601f831160018114612e4d5760008415612e3b578287015190505b612e458582612dc7565b865550612ead565b601f198416612e5b86612c37565b60005b82811015612e8357848901518255600182019150602085019450602081019050612e5e565b86831015612ea05784890151612e9c601f891682612da9565b8355505b6001600288020188555050505b505050505050565b7f4552433732313a207472616e7366657220746f206e6f6e20455243373231526560008201527f63656976657220696d706c656d656e7465720000000000000000000000000000602082015250565b6000612f11603283611ce1565b9150612f1c82612eb5565b604082019050919050565b60006020820190508181036000830152612f4081612f04565b9050919050565b6000612f5282611d88565b91507fffffffffffffffffffffffffffffffffffffffffffffffffffffffffffffffff8203612f8457612f83612ba0565b5b600182019050919050565b7f4e487b7100000000000000000000000000000000000000000000000000000000600052601260045260246000fd5b6000612fc982611d88565b9150612fd483611d88565b925082612fe457612fe3612f8f565b5b828204905092915050565b6000612ffa82611d88565b915061300583611d88565b92508261301557613014612f8f565b5b828206905092915050565b7f4e487b7100000000000000000000000000000000000000000000000000000000600052603260045260246000fd5b7f4552433732313a206d696e7420746f20746865207a65726f2061646472657373600082015250565b6000613085602083611ce1565b91506130908261304f565b602082019050919050565b600060208201905081810360008301526130b481613078565b9050919050565b7f4552433732313a20746f6b656e20616c7265616479206d696e74656400000000600082015250565b60006130f1601c83611ce1565b91506130fc826130bb565b602082019050919050565b60006020820190508181036000830152613120816130e4565b9050919050565b600081519050919050565b600082825260208201905092915050565b600061314e82613127565b6131588185613132565b9350613168818560208601611cf2565b61317181611d1c565b840191505092915050565b60006080820190506131916000830187611e1d565b61319e6020830186611e1d565b6131ab604083018561217f565b81810360608301526131bd8184613143565b905095945050505050565b6000815190506131d781611c47565b92915050565b6000602082840312156131f3576131f2611c11565b5b6000613201848285016131c8565b9150509291505056fea264697066735822122032b07289f7bb3d393766960e7850a20359e170435af5e58dc1b3e1efcac6ec6064736f6c63430008180033",
  "linkReferences": {},
  "deployedLinkReferences": {}
}